:020000040800F2
:100000000000082411300008712D0008732D00082D
:10001000752D0008772D0008792D000800000000DC
:100020000000000000000000000000007B2D000820
:100030007D2D0008000000007F2D0008812D0008A4
:10004000613000086130000861300008613000084C
:10005000613000086130000861300008613000083C
:10006000613000086130000861300008613000082C
:10007000613000086130000861300008613000081C
:10008000613000086130000861300008613000080C
:1000900061300008613000086130000861300008FC
:1000A00061300008613000086130000861300008EC
:1000B00061300008613000086130000861300008DC
:1000C00061300008613000086130000861300008CC
:1000D00061300008613000086130000861300008BC
:1000E0006130000861300008000000006130000845
:1000F000613000086130000861300008613000089C
:10010000613000086130000861300008613000088B
:10011000613000086130000861300008613000087B
:10012000613000086130000861300008613000086B
:10013000613000086130000861300008613000085B
:1001400000000000000000000000000000000000AF
:100150006130000861300008852D0008613000081A
:10016000613000086130000861300008613000082B
:100170006130000861300008912D000861300008EE
:10018000613000086130000861300008613000080B
:1001900061300008613000086130000861300008FB
:1001A00061300008613000086130000861300008EB
:1001B00061300008613000086130000861300008DB
:1001C00061300008613000086130000861300008CB
:1001D00061300008613000086130000861300008BB
:1001E00061300008613000086130000861300008AB
:1001F000613000086130000861300008613000089B
:10020000613000086130000861300008613000088A
:10021000613000086130000861300008613000087A
:100220006130000861300008613000080000000003
:1002300061300008613000080000000061300008F3
:10024000613000086130000861300008613000084A
:10025000613000086130000861300008613000083A
:10026000613000086130000861300008613000082A
:1002700061300008613000086130000800000000B3
:1002800061300008613000086130000800000000A3
:080290000000000061300008CD
:1002C00010B5054C237833B9044B13B10448AFF390
:1002D00000800123237010BDC00900200000000031
:1002E00058D0000808B5034B1BB103490348AFF3CE
:1002F000008008BD00000000C409002058D000089C
:1003000080F0004002E000BF81F0004142001FBFCA
:100310005FEA410392EA030F7FEA226C7FEA236CD3
:100320006AD04FEA1262D2EB1363C1BFD2184140C8
:1003300048404140B8BF5B42192B88BF704710F05E
:10034000004F40F4000020F07F4018BF404211F001
:10035000004F41F4000121F07F4118BF494292EA69
:10036000030F3FD0A2F1010241FA03FC10EB0C0095
:10037000C3F1200301FA03F100F0004302D5494222
:1003800060EB4000B0F5000F13D3B0F1807F06D3CF
:1003900040084FEA310102F10102FE2A51D2B1F1C7
:1003A000004F40EBC25008BF20F0010040EA0300BC
:1003B0007047490040EB0000013A28BFB0F5000F3C
:1003C000EDD2B0FA80FCACF1080CB2EB0C0200FAF2
:1003D0000CF0AABF00EBC25052421843BCBFD04041
:1003E0001843704792F0000F81F4000106BF80F4BB
:1003F00000000132013BB5E74FEA41037FEA226C7E
:1004000018BF7FEA236C21D092EA030F04D092F048
:10041000000F08BF0846704790EA010F1CBF00207C
:10042000704712F07F4F04D1400028BF40F00040D9
:10043000704712F100723CBF00F50000704700F0F9
:10044000004343F0FE4040F4000070477FEA226220
:1004500016BF08467FEA23630146420206BF5FEAF1
:10046000412390EA010F40F4800070474FF00003F1
:1004700004E000BF10F0004348BF40425FEA000CB8
:1004800008BF704743F0964301464FF000001CE060
:1004900050EA010208BF70474FF000030AE000BFB6
:1004A00050EA010208BF704711F0004302D54042F4
:1004B00061EB41015FEA010C02BF84460146002066
:1004C00043F0B64308BFA3F18053A3F50003BCFA81
:1004D0008CF2083AA3EBC25310DB01FA02FC63442E
:1004E00000FA02FCC2F12002BCF1004F20FA02F235
:1004F00043EB020008BF20F00100704702F1200228
:1005000001FA02FCC2F1200250EA4C0021FA02F288
:1005100043EB020008BF20EADC7070474FF0FF0C8D
:100520001CEAD0521EBF1CEAD15392EA0C0F93EA88
:100530000C0F6FD01A4480EA010C400218BF5FEA2A
:1005400041211ED04FF0006343EA501043EA51119D
:10055000A0FB01310CF00040B1F5000F3EBF490097
:1005600041EAD3715B0040EA010062F17F02FD2A9B
:100570001DD8B3F1004F40EBC25008BF20F001007E
:10058000704790F0000F0CF0004C08BF49024CEA95
:10059000502040EA51207F3AC2BFD2F1FF0340EA27
:1005A000C250704740F400004FF00003013A5DDC98
:1005B00012F1190FDCBF00F000407047C2F10002D9
:1005C000410021FA02F1C2F1200200FA02FC5FEAC6
:1005D000310040F1000053EA4C0308BF20EADC7010
:1005E000704792F0000F00F0004C02BF400010F482
:1005F000000F013AF9D040EA0C0093F0000F01F02F
:10060000004C02BF490011F4000F013BF9D041EA50
:100610000C018FE70CEAD15392EA0C0F18BF93EA52
:100620000C0F0AD030F0004C18BF31F0004CD8D17C
:1006300080EA010000F00040704790F0000F17BF03
:1006400090F0004F084691F0000F91F0004F14D049
:1006500092EA0C0F01D142020FD193EA0C0F03D1A1
:100660004B0218BF084608D180EA010000F00040A4
:1006700040F0FE4040F40000704740F0FE4040F47F
:10068000400070474FF0FF0C1CEAD0521EBF1CEA1E
:10069000D15392EA0C0F93EA0C0F69D0A2EB03023C
:1006A00080EA010C49024FEA402037D04FF08053D6
:1006B00043EA111143EA10130CF000408B4238BF9B
:1006C0005B0042F17D024FF4000C8B4224BF5B1AA9
:1006D00040EA0C00B3EB510F24BFA3EB510340EAF7
:1006E0005C00B3EB910F24BFA3EB910340EA9C00A5
:1006F000B3EBD10F24BFA3EBD10340EADC001B0115
:1007000018BF5FEA1C1CE0D1FD2A3FF650AF8B42B8
:1007100040EBC25008BF20F0010070470CF0004CC5
:100720004CEA50207F32C2BFD2F1FF0340EAC250F0
:10073000704740F400004FF00003013A37E792F0B1
:10074000000F00F0004C02BF400010F4000F013A0F
:10075000F9D040EA0C0093F0000F01F0004C02BF0A
:10076000490011F4000F013BF9D041EA0C0195E773
:100770000CEAD15392EA0C0F08D142027FF47DAF0C
:1007800093EA0C0F7FF470AF084676E793EA0C0FFC
:1007900004D14B023FF44CAF08466EE730F0004CFA
:1007A00018BF31F0004CCAD130F000427FF45CAF8A
:1007B00031F000437FF43CAF5FE700BF42000ED250
:1007C000B2F1FE4F0BD34FF09E03B3EB126209D48C
:1007D0004FEA002343F0004323FA02F070474FF042
:1007E0000000704712F1610F01D1420202D14FF0B7
:1007F000FF3070474FF00000704700BF53B94AB94F
:10080000002908BF00281CBF4FF0FF314FF0FF3018
:1008100000F074B9ADF1080C6DE904CE00F006F8F3
:10082000DDF804E0DDE9022304B070472DE9F0476C
:10083000089E0D4604468846002B4DD18A429446B8
:1008400068D9B2FA82F252B101FA02F3C2F1200180
:1008500020FA01F10CFA02FC41EA030894404FEA45
:100860001C45210CB8FBF5FE1FFA8CF705FB1E8317
:1008700041EA03430EFB07F199420BD91CEB03033A
:100880000EF1FF3080F01E81994240F21B81AEF1E3
:10089000020E63445B1AA4B2B3FBF5F005FB103300
:1008A00044EA034400FB07F7A7420AD91CEB0404FF
:1008B00000F1FF3380F00881A74240F205816444D3
:1008C0000238E41B40EA0E4000211EB1D440002350
:1008D000C6E90043BDE8F0878B4208D9002E00F03E
:1008E000EE800021C6E900050846BDE8F087B3FAAE
:1008F00083F100294AD1AB4202D3824200F2F9804F
:10090000841A65EB030301209846002EE2D0C6E965
:100910000048DFE702B9FFDEB2FA82F2002A40F0B7
:100920009180A1EB0C054FEA1C471FFA8CFE0121B8
:10093000B5FBF7F307FB1350250C45EA00450EFB0A
:1009400003F0A84208D91CEB050503F1FF3802D2D9
:10095000A84200F2CB8043462D1AA4B2B5FBF7F0B3
:1009600007FB105544EA05440EFB00FEA64508D9D6
:100970001CEB040400F1FF3502D2A64500F2BB8057
:100980002846A4EB0E0440EA03409EE7C1F120078D
:100990008B4022FA07FC4CEA030C20FA07F405FA14
:1009A00001F31C43FD404FEA1C4900FA01F3B5FB7B
:1009B000F9F8200C1FFA8CFE09FB185540EA054592
:1009C00008FB0EF0A84202FA01F20BD91CEB050558
:1009D00008F1FF3A80F08880A84240F28580A8F1B3
:1009E000020865442D1AA4B2B5FBF9F009FB1055B5
:1009F00044EA054500FB0EFEAE4508D91CEB050593
:100A000000F1FF346CD2AE456AD90238654440EA41
:100A10000840A0FB0294A5EB0E05A542C846A646D9
:100A200056D353D05EB1B3EB080265EB0E0505FA61
:100A300007F722FA01F3CD401F43C6E900750021F4
:100A4000BDE8F087C2F1200320FA03F10CFA02FCA2
:100A500025FA03F395400D434FEA1C471FFA8CFE1D
:100A6000B3FBF7F107FB11302B0C43EA004301FB0A
:100A70000EF0984204FA02F408D91CEB030301F1CA
:100A8000FF382FD298422DD9023963441B1AADB2D8
:100A9000B3FBF7F007FB103345EA034500FB0EF309
:100AA000AB4208D91CEB050500F1FF3816D2AB426A
:100AB00014D902386544ED1A40EA014138E731465D
:100AC000304607E78646E5E61846FAE64B45A9D2E2
:100AD000B9EB020864EB0C0E0138A3E74046EAE7E5
:100AE000204694E74146D1E7D0467BE7023B654488
:100AF00032E7084609E76444023842E7704700BF1E
:100B000090F800F06DE9024520F007016FF0000C4D
:100B100010F0070491F820F040F049804FF00004F5
:100B20006FF00700D1E9002391F840F000F10800D0
:100B300082FA4CF2A4FA8CF283FA4CF3A2FA8CF308
:100B40004BBBD1E9022382FA4CF200F10800A4FA6F
:100B50008CF283FA4CF3A2FA8CF3E3B9D1E90423C3
:100B600082FA4CF200F10800A4FA8CF283FA4CF3FA
:100B7000A2FA8CF37BB9D1E9062301F1200182FAB4
:100B80004CF200F10800A4FA8CF283FA4CF3A2FABA
:100B90008CF3002BC6D0002A04BF04301A4612BAC8
:100BA000B2FA82F2FDE8024500EBD2007047D1E9CB
:100BB000002304F00305C4F100004FEAC50514F05A
:100BC000040F91F840F00CFA05F562EA05021CBF2B
:100BD00063EA050362464FF00004A9E70000000045
:100BE00001F0FF01102A2BDB10F0070F08D010F8DE
:100BF000013B013A8B422DD010F0070F42B3F6D1E2
:100C0000F0B441EA012141EA014122F007047FF0FA
:100C100000070023F0E80256083C85EA010586EA51
:100C2000010685FA47F5A3FA87F586FA47F6A5FA8D
:100C300087F68EB9EED1F0BC01F0FF0102F0070299
:100C400032B110F8013B013A83EA010313B1F8D144
:100C50000020704701387047002D06BF3546033825
:100C6000073815F0010F07D1013015F4807F02BF5E
:100C7000013015F4C03F0130F0BC0138704700BFAF
:100C8000844641EA000313F003036DD1403A41D397
:100C900051F8043B40F8043B51F8043B40F8043B56
:100CA00051F8043B40F8043B51F8043B40F8043B46
:100CB00051F8043B40F8043B51F8043B40F8043B36
:100CC00051F8043B40F8043B51F8043B40F8043B26
:100CD00051F8043B40F8043B51F8043B40F8043B16
:100CE00051F8043B40F8043B51F8043B40F8043B06
:100CF00051F8043B40F8043B51F8043B40F8043BF6
:100D000051F8043B40F8043B51F8043B40F8043BE5
:100D1000403ABDD2303211D351F8043B40F8043B85
:100D200051F8043B40F8043B51F8043B40F8043BC5
:100D300051F8043B40F8043B103AEDD20C3205D395
:100D400051F8043B40F8043B043AF9D2043208D08D
:100D5000D2071CBF11F8013B00F8013B01D30B88FF
:100D600003806046704700BF082A13D38B078DD0DD
:100D700010F003038AD0C3F10403D21ADB071CBFAF
:100D800011F8013B00F8013B80D331F8023B20F819
:100D9000023B7BE7043AD9D3013A11F8013B00F852
:100DA000013BF9D20B7803704B7843708B788370DA
:100DB0006046704781F0004102E000BF83F00043CD
:100DC00030B54FEA41044FEA430594EA050F08BFE6
:100DD00090EA020F1FBF54EA000C55EA020C7FEAAA
:100DE000645C7FEA655C00F0E2804FEA5454D4EB27
:100DF0005555B8BF6D420CDD2C4480EA020281EAF1
:100E0000030382EA000083EA010180EA020281EA28
:100E10000303362D88BF30BD11F0004F4FEA01317A
:100E20004FF4801C4CEA113102D0404261EB410189
:100E300013F0004F4FEA03334CEA133302D052420F
:100E400063EB430394EA050F00F0A780A4F10104CB
:100E5000D5F1200E0DDB02FA0EFC22FA05F2801805
:100E600041F1000103FA0EF2801843FA05F35941EB
:100E70000EE0A5F120050EF1200E012A03FA0EFC6A
:100E800028BF4CF0020C43FA05F3C01851EBE37194
:100E900001F0004507D54FF0000EDCF1000C7EEBB1
:100EA00000006EEB0101B1F5801F1BD3B1F5001FEF
:100EB0000CD349085FEA30004FEA3C0C04F101040E
:100EC0004FEA445212F5800F80F09A80BCF1004F37
:100ED00008BF5FEA500C50F1000041EB045141EAB9
:100EE000050130BD5FEA4C0C404141EB0101013C82
:100EF00028BFB1F5801FE9D291F0000F04BF014671
:100F00000020B1FA81F308BF2033A3F10B03B3F142
:100F100020020CDA0C3208DD02F1140CC2F10C02D2
:100F200001FA0CF021FA02F10CE002F11402D8BF30
:100F3000C2F1200C01FA02F120FA0CFCDCBF41EAFC
:100F40000C019040E41AA2BF01EB0451294330BDCB
:100F50006FEA04041F3C1CDA0C340EDC04F11404A8
:100F6000C4F1200220FA04F001FA02F340EA03007F
:100F700021FA04F345EA030130BDC4F10C04C4F1C5
:100F8000200220FA02F001FA04F340EA03002946A5
:100F900030BD21FA04F0294630BD94F0000F83F4EF
:100FA000801306BF81F480110134013D4EE77FEAD2
:100FB000645C18BF7FEA655C29D094EA050F08BF1E
:100FC00090EA020F05D054EA000C04BF19461046FF
:100FD00030BD91EA030F1EBF0021002030BD5FEA43
:100FE000545C05D14000494128BF41F0004130BD6B
:100FF00014F580043CBF01F5801130BD01F00045BF
:1010000045F0FE4141F470014FF0000030BD7FEA31
:10101000645C1ABF194610467FEA655C1CBF0B462C
:10102000024650EA013406BF52EA033591EA030F43
:1010300041F4002130BD00BF90F0000F04BF00213B
:10104000704730B54FF4806404F132044FF000056E
:101050004FF0000150E700BF90F0000F04BF0021E7
:10106000704730B54FF4806404F1320410F000454D
:1010700048BF40424FF000013EE700BF42004FEA48
:10108000E2014FEA31014FEA02701FBF12F07F43C5
:1010900093F07F4F81F06051704732F07F4208BF7C
:1010A000704793F07F4F04BF41F40021704730B583
:1010B0004FF4607401F0004521F000411CE700BFCF
:1010C00050EA010208BF704730B54FF000050AE052
:1010D00050EA010208BF704730B511F0004502D553
:1010E000404261EB41014FF4806404F132045FEA55
:1010F000915C3FF4D8AE4FF003025FEADC0C18BFFE
:1011000003325FEADC0C18BF033202EBDC02C2F1EF
:10111000200300FA03FC20FA02F001FA03FE40EA81
:101120000E0021FA02F11444BDE600BF70B54FF085
:10113000FF0C4CF4E06C1CEA11541DBF1CEA135563
:1011400094EA0C0F95EA0C0F00F0DEF82C4481EACB
:10115000030621EA4C5123EA4C5350EA013518BFEB
:1011600052EA033541F4801143F4801338D0A0FBD8
:1011700002CE4FF00005E1FB02E506F00042E0FB85
:1011800003E54FF00006E1FB03569CF0000F18BF8B
:101190004EF0010EA4F1FF04B6F5007F64F5407433
:1011A00004D25FEA4E0E6D4146EB060642EAC621C6
:1011B00041EA55514FEAC52040EA5E504FEACE2E33
:1011C000B4F1FD0C88BFBCF5E06F1ED8BEF1004F36
:1011D00008BF5FEA500E50F1000041EB045170BDB2
:1011E00006F0004646EA010140EA020081EA0301F6
:1011F000B4EB5C04C2BFD4EB0C0541EA045170BDF2
:1012000041F480114FF0000E013C00F3AB8014F16B
:10121000360FDEBF002001F0004170BDC4F10004B4
:10122000203C35DA0C341BDC04F11404C4F1200535
:1012300000FA05F320FA04F001FA05F240EA020090
:1012400001F0004221F0004110EBD37021FA04F6C6
:1012500042EB06015EEA430E08BF20EAD37070BD80
:10126000C4F10C04C4F1200500FA04F320FA05F0DF
:1012700001FA04F240EA020001F0004110EBD370E1
:1012800041F100015EEA430E08BF20EAD37070BD51
:10129000C4F1200500FA05F24EEA020E20FA04F32A
:1012A00001FA05F243EA020321FA04F001F00041D9
:1012B00021FA04F220EA020000EBD3705EEA430E4A
:1012C00008BF20EAD37070BD94F0000F0FD101F079
:1012D0000046400041EB010111F4801F08BF013CB2
:1012E000F7D041EA060195F0000F18BF704703F0F0
:1012F0000046520043EB030313F4801F08BF013D77
:10130000F7D043EA0603704794EA0C0F0CEA135532
:1013100018BF95EA0C0F0CD050EA410618BF52EAEC
:101320004306D1D181EA030101F000414FF00000F2
:1013300070BD50EA410606BF1046194652EA430600
:1013400019D094EA0C0F02D150EA013613D195EA74
:101350000C0F05D152EA03361CBF104619460AD1BC
:1013600081EA030101F0004141F0FE4141F47001C6
:101370004FF0000070BD41F0FE4141F4780170BDB6
:1013800070B54FF0FF0C4CF4E06C1CEA11541DBF1B
:101390001CEA135594EA0C0F95EA0C0F00F0A7F81D
:1013A000A4EB050481EA030E52EA03354FEA01314A
:1013B00000F088804FEA03334FF0805545EA13135D
:1013C00043EA12634FEA022245EA111545EA106525
:1013D0004FEA00260EF000419D4208BF964244F1BC
:1013E000FD0404F5407402D25B084FEA3202B61ADB
:1013F00065EB03055B084FEA32024FF480104FF4AF
:10140000002CB6EB020E75EB030E22BFB61A754622
:1014100040EA0C005B084FEA3202B6EB020E75EBB5
:10142000030E22BFB61A754640EA5C005B084FEA1D
:101430003202B6EB020E75EB030E22BFB61A7546EA
:1014400040EA9C005B084FEA3202B6EB020E75EBF5
:10145000030E22BFB61A754640EADC0055EA060EB6
:1014600018D04FEA051545EA16754FEA06164FEAF9
:10147000C30343EA52734FEAC2025FEA1C1CC0D1A5
:1014800011F4801F0BD141EA00014FF000004FF032
:10149000004CB6E711F4801F04BF01430020B4F1F3
:1014A000FD0C88BFBCF5E06F3FF6AFAEB5EB030CAB
:1014B00004BFB6EB020C5FEA500C50F1000041EBA8
:1014C000045170BD0EF0004E4EEA113114EB5C0475
:1014D000C2BFD4EB0C0541EA045170BD41F4801148
:1014E0004FF0000E013C90E645EA060E8DE60CEA50
:1014F000135594EA0C0F08BF95EA0C0F3FF43BAF6D
:1015000094EA0C0F0AD150EA01347FF434AF95EA23
:101510000C0F7FF425AF104619462CE795EA0C0F07
:1015200006D152EA03353FF4FDAE1046194622E7D4
:1015300050EA410618BF52EA43067FF4C5AE50EAAE
:1015400041047FF40DAF52EA43057FF4EBAE12E79E
:101550004FF0FF3C06E000BF4FF0010C02E000BF7F
:101560004FF0010C4DF804CD4FEA410C7FEA6C5C62
:101570004FEA430C18BF7FEA6C5C1BD001B050EA05
:10158000410C0CBF52EA430C91EA030F02BF90EAF0
:10159000020F0020704710F1000F91EA030F58BFAF
:1015A000994208BF90422CBFD8176FEAE37040F011
:1015B000010070474FEA410C7FEA6C5C02D150EAAF
:1015C000013C07D14FEA430C7FEA6C5CD6D152EA6A
:1015D000033CD3D05DF8040B704700BF844610462F
:1015E00062468C461946634600E000BF01B5FFF72E
:1015F000B7FF002848BF10F1000F01BD4DF808EDFE
:10160000FFF7F4FF0CBF012000205DF808FB00BFCE
:101610004DF808EDFFF7EAFF34BF012000205DF828
:1016200008FB00BF4DF808EDFFF7E0FF94BF012075
:1016300000205DF808FB00BF4DF808EDFFF7CEFF76
:1016400094BF012000205DF808FB00BF4DF808EDB5
:10165000FFF7C4FF34BF012000205DF808FB00BF86
:101660004FEA410C7FEA6C5C02D150EA013C0AD19E
:101670004FEA430C7FEA6C5C02D152EA033C02D190
:101680004FF0000070474FF0010070474FEA4102F1
:1016900012F5001215D211D56FF47873B3EB6252C4
:1016A00012D94FEAC12343F0004343EA505311F0EB
:1016B000004F23FA02F018BF404270474FF000007D
:1016C000704750EA013005D111F0004008BF6FF0BB
:1016D000004070474FF00000704700BF08B5084851
:1016E000084B036000238380C0E9053301230362B4
:1016F00001F0E6FD18B1BDE8084000F0FFBF08BDED
:10170000DC090020004C0258026882B0094B9A4262
:101710000DD1A3F50063D3F8E02042F40022C3F812
:10172000E020D3F8E03003F400230193019B02B0E2
:10173000704700BF004C025808B50E4800230E4AFF
:1017400083610363C0E900232022C0E90433C0E9B8
:101750000223C0E90833C0E90A3301F05DFE08B195
:1017600000F0CCFF01224FF400510448BDE80840CE
:1017700003F066BA0C0A002000000248001C025860
:10178000142200212DE9F0418AB006460DEB02003B
:1017900005F0C4FC3268484B9A4240F08980474BC0
:1017A00003270D244FF00208D3F8E02005A9444890
:1017B000002542F08002C3F8E020D3F8E02002F0D8
:1017C00080020092009AD3F8DC2042F00102C3F8B4
:1017D000DC20D3F8DC2002F001020192019AD3F858
:1017E000E02042F48072C3F8E020D3F8E02002F455
:1017F00080720292029AD3F8E02042F08002C3F88D
:10180000E020D3F8E02002F080020392039AD3F89C
:10181000E02042F00102C3F8E020D3F8E03003F00A
:1018200001030493049BF023CDE90874CDE9053846
:1018300003F014F94FF4BE4305A922480994CDE9F9
:101840000538CDE9075703F009F9402305A91E48DB
:1018500009941E4CCDE90538CDE9075703F0FEF891
:101860004B231B4A4FF480614FF480402562C4E94A
:1018700000234FF48053C4E904134FF48073C4E988
:10188000060304232046C4E90255C4E90937C4E924
:101890000B5502F09BF808B100F030FF00224E20FB
:1018A000B4641146A66301F06DFC4E2001F09CFC6F
:1018B0000AB0BDE8F08100BF0000024800440258B1
:1018C00000200258001C025800000258740A002030
:1018D000B804024082B0002249F63F41013801D2EB
:1018E00002B07047ADF80620BDF806309BB28B42BF
:1018F000F4D8BDF8063001339BB2ADF80630F3E7FB
:1019000070B54FF480730D4604460648C36102F07B
:101910005DF82B46224600210348BDE8704001F0E7
:10192000DBBD00BF740A00200C0A0020904237B5CE
:1019300018D2994216D25C1A4500101A4A1E04EBBE
:10194000D474013D92B2641081B20092013CABB2FA
:101950000648A2B201F07CFE044801F092FE00208D
:1019600003B030BD4FF0FF30FAE700BF0C0A002093
:1019700008B51E20FFF7AEFF00224FF400510C48BF
:1019800003F05EF90520FFF7A5FF1420FFF7A2FF83
:10199000112143F2031001F0ECF8822143F2080018
:1019A00001F0E7F80520BDE80840FFF793BF00BF4E
:1019B000001C025810B543F20A0001F0EAF8044690
:1019C00043F20B0001F0E5F840EA042080B210BDBC
:1019D00038B5074D0024A978013435F8040B01F01F
:1019E000C8F80120FFF776FFFE2CF4D138BD00BF08
:1019F000D6E0000838B505460C4643F21220032114
:101A000001F0B7F843F60800290A01F0B2F843F6EE
:101A10000900E9B201F0ADF843F60A00210A01F02D
:101A2000A8F843F60B00E1B201F0A3F8132143F24A
:101A3000122001F09EF8A32143F2122001F099F840
:101A4000002038BD08B500F0E7FEFFF775FEFFF790
:101A50008FFFFFF7AFFF45F240630146984215D173
:101A60000D4805F0ADFBFFF7B3FF4FF496714FF44F
:101A7000C870FFF7BFFF4FF496734FF4C8724FF46E
:101A80008C71F020FFF752FF002008BD034805F0DD
:101A900097FB4FF0FF30F8E770D0000884D00008C3
:101AA00038B520214FF4405001F063F8642440F62B
:101AB000ED7212494FF40040114D01F086F80021FB
:101AC0004FF4405001F055F843F2290001F061F85D
:101AD0007E280CD1284605F0D5FB013CA4B2002C91
:101AE000F2D1084805F0CEFB4FF0FF3005E070283A
:101AF000F3D1054805F0C6FB002038BDE9D0000849
:101B00009FD00008C4D00008B2D00008042143F2DE
:101B1000220001F02EB8000038B50C4D01F002FB98
:101B20000B4C2B68C01AB0F57A7F07D301F0FAFA94
:101B30002278084B28601A70002323702378012232
:101B400001332370044B1A7038BD00BF040A002013
:101B5000000A0020080A0020090A0020704700003F
:101B60000C4B07B5D3F8D820462042F00202C3F848
:101B7000D8200022D3F8D830114603F00203019395
:101B8000019B01F0FFFA462003B05DF804EB01F081
:101B90002BBB00BF004402582DE9F04F8FB0142238
:101BA0000021704D09A8DFF8C0B105F0B7FA6F4BFE
:101BB000DFF8BC812846D3F8E0204FF40051002420
:101BC000022742F4807203264FF00E0A4FF00109FB
:101BD000C3F8E020D3F8E02002F480720192019A69
:101BE000D3F8E02042F48062C3F8E020D3F8E0208C
:101BF00002F480620292029AD3F8E02042F400726A
:101C0000C3F8E020D3F8E02002F400720392039AB4
:101C1000D3F8E02042F00102C3F8E020D3F8E0203E
:101C200002F001020492049AD3F8E02042F080020C
:101C3000C3F8E020D3F8E02002F080020592059A74
:101C4000D3F8E02042F00402C3F8E020D3F8E0200B
:101C500002F004020692069AD3F8E02042F0400215
:101C6000C3F8E020D3F8E02002F040020792079A80
:101C7000D3F8E02042F02002C3F8E0200022D3F89D
:101C8000E03003F020030893089B02F0D9FF584688
:101C900000224FF4005102F0D3FF404600224FF4DF
:101CA000006102F0CDFF01222846402102F0C8FF6A
:101CB0007E2309A92F48CDF834A0CDE90937CDE915
:101CC0000B4602F0CBFE4FF2FF3309A94046CDF898
:101CD00034A0CDE90937CDE90B4602F0BFFE4FF441
:101CE000015309A92846CDE90939CDE90B4402F091
:101CF000B5FE4FF4005309A95846CDE90939CDE99D
:101D00000B4402F0ABFE4FF4704309A91A48CDF81A
:101D100034A0CDE90937CDE90B4602F09FFE4FF420
:101D2000006309A94046CDE90939CDE90B4402F029
:101D300095FE0C2309A928460D93CDE90937CDE975
:101D40000B4602F08BFE102309A92846CDE909377E
:101D50000923CDE90B460D9302F080FE0FB0BDE8DC
:101D6000F08F00BF001C02580008025800440258BF
:101D700000240258002802580020025807B500220B
:101D80008DF807004FF40061064802F059FF4FF448
:101D90007A7301220DF10701034804F0B1FC03B08E
:101DA0005DF804FB00240258480B002007B501220F
:101DB0008DF807004FF40061064802F041FF4FF430
:101DC0007A7301220DF10701034804F099FC03B076
:101DD0005DF804FB00240258480B002013B50446AC
:101DE00001224FF40061084802F02AFF0222230A70
:101DF00001A906488DF804304FF47A738DF8054038
:101E000004F07EFC02B010BD00240258480B0020F4
:101E10002DE9F041DFF8508006462A200F4615468E
:101E20001C46FFF7ABFF98F80E00304480B2FFF776
:101E3000D5FF98F80E00284480B2FFF7CFFF2B2083
:101E4000FFF79CFF98F80F00384480B2FFF7C6FFF9
:101E500098F80F00204480B2FFF7C0FF2C20BDE8A7
:101E6000F041FFF78BBF00BFEC0A002010B5144C07
:101E7000607258B93620FFF781FF7020FFF796FF98
:101E80004FF48C7363810F4BE36010BD022809D1BE
:101E90003620FFF773FF0020FFF788FFF0236381F0
:101EA000094BF1E7012804D13620FFF767FFA02096
:101EB000E4E70328E9D13620FFF760FFC020EBE715
:101EC000EC0A0020F0001400180100142DE9F04184
:101ED000DDF8188006460D4614461F4633685B69D8
:101EE00035EA03030CBF01230023A34202D00020E4
:101EF000BDE8F08101F016F9C01B404504D3B8F1EC
:101F0000FF3FEBD00320F3E7B8F1000FE6D1F9E78C
:101F1000036859699A6942F008029A619A6942F025
:101F200010029A611A6822F001021A601A6922F4FA
:101F30005B7222F003021A619A6822F440429A60AE
:101F400090F88120042A0BD08A0609D5D0F8842085
:101F500042F08002C0F884209A6942F020029A611F
:101F600090F88120032A0BD04A0609D5D0F88420A6
:101F700042F00402C0F884209A6942F040029A615B
:101F80008A0509D5D0F8842042F00102C0F88420E7
:101F90009A6942F400729A61CA0509D5D0F8842082
:101FA00042F00802C0F884209A6942F480729A6173
:101FB0000023A0F86230A0F86A3070472DE9F3479B
:101FC00090F88030044688461546012B0DD0012339
:101FD00080F8803001F0A6F894F881300746012B94
:101FE000DEB204D0002384F88030022602E02DB94E
:101FF00084F88050304602B0BDE8F0870323002209
:1020000048EA084A84F88130A368C4F88420B3F50C
:10201000C02F6266A4F86820A4F86A20C4E91C22D4
:10202000226803D1136843F40063136053681B0CE8
:102030001B045360136843F0010313606368B3F536
:10204000800F03D1136843F40073136023685A6947
:1020500012F002094BD0B4F8622092B2012A42D9A0
:10206000E26B002A3FD0023DC3F820A0002DEDD145
:102070004FF47A732A464FF48051204600933B4632
:10208000FFF724FF28B1D4F8843043F02003C4F8CC
:10209000843022684FF400612046136843F4806363
:1020A00013604FF47A73002200933B46FFF70EFF54
:1020B00028B1D4F8843043F02003C4F8843020469B
:1020C000FFF726FF2268936943F4006393610023BE
:1020D00084F88030012384F88130D4F88460003E95
:1020E00018BF012686E7013DA3F82080BEE701F076
:1020F00019F8C01BB0F57A7FA8D32046FFF708FF78
:10210000D4F8843084F8809043F48073C4F8843029
:10211000012384F881306DE738B5124D0021124C4F
:10212000AB8908466A89013B013A9BB292B2FFF73C
:102130006FFE01224FF400610C4802F081FD0F2375
:102140002046E36004F046FA6B892046AA89A988F4
:102150005A43FFF733FF07232046E360BDE83840CA
:1021600004F038BAEC0A0020480B00200024025882
:1021700008B50A2000F0DCFF3620FFF7FFFD002045
:10218000FFF714FE3A20FFF7F9FD0520FFF70EFEDA
:10219000B220FFF7F3FD0C20FFF708FE0C20FFF73D
:1021A00005FE0020FFF702FE3320FFF7FFFD33207E
:1021B000FFF7FCFDB720FFF7E1FD3520FFF7F6FD47
:1021C000BB20FFF7DBFD1920FFF7F0FDC020FFF774
:1021D000D5FD2C20FFF7EAFDC220FFF7CFFD01203F
:1021E000FFF7E4FDC320FFF7C9FD1220FFF7DEFD76
:1021F000C420FFF7C3FD2020FFF7D8FDC620FFF75E
:10220000BDFD0F20FFF7D2FDD020FFF7B7FDA420C2
:10221000FFF7CCFDA120FFF7C9FDE020FFF7AEFDE1
:10222000D020FFF7C3FD0420FFF7C0FD0D20FFF70E
:10223000BDFD1120FFF7BAFD1320FFF7B7FD2B20DE
:10224000FFF7B4FD3F20FFF7B1FD5420FFF7AEFDCF
:102250004C20FFF7ABFD1820FFF7A8FD0D20FFF77E
:10226000A5FD0B20FFF7A2FD1F20FFF79FFD2320F8
:10227000FFF79CFDE120FFF781FDD020FFF796FDE1
:102280000420FFF793FD0C20FFF790FD1120FFF7CE
:102290008DFD1320FFF78AFD2C20FFF787FD3F20DF
:1022A000FFF784FD4420FFF781FD5120FFF77EFDFD
:1022B0002F20FFF77BFD1F20FFF778FD1F20FFF782
:1022C00075FD2020FFF772FD2320FFF76FFD212011
:1022D000FFF754FD1120FFF751FD782000F028FF93
:1022E0002920FFF74BFD0220FFF7C0FD074B4FF6FB
:1022F000FF724FF47841C3E90021FFF70DFF01227F
:1023000040210348BDE8084002F09ABCEC0A0020D6
:10231000001C02582DE9F74390F8803004460F4620
:102320001546012B0DD0012380F8803000F0FAFE15
:1023300094F881308046012BDEB204D0002384F86B
:102340008030022602E02DB984F88050304603B078
:10235000BDE8F0830323002284F88130A368C4F829
:102360008420B3F5C02F6266A4F86820A4F86A2020
:10237000C4E91C22226803D1136843F4006313608C
:1023800053681B0C1B045360136843F00103136074
:102390006368B3F5800F03D1136843F400731360CF
:1023A00023685A6912F002094AD0012D43D0E26B2A
:1023B000002A40D057F8042B023D1A62002DEFD1BD
:1023C0004FF47A732A464FF48051204600934346D7
:1023D000FFF77CFD28B1D4F8843043F02003C4F823
:1023E000843022684FF400612046136843F4806310
:1023F00013604FF47A73002200934346FFF766FDA3
:1024000028B1D4F8843043F02003C4F88430204647
:10241000FFF77EFD2268936943F400639361002314
:1024200084F88030012384F88130D4F88460003E41
:1024300018BF01268AE737F8022B013D1A84BDE751
:1024400000F070FEA0EB0800B0F57A7FA8D320461C
:10245000FFF75EFDD4F8843084F8809043F48073F5
:10246000C4F88430012384F881306FE7F8B515464D
:102470001E46013A013B104C0B440244069F9BB29E
:1024800092B2FFF7C5FC01224FF400610B4802F045
:10249000D7FB0F232046E36004F09CF806FB05F20F
:1024A00039462046FFF736FF07232046E360BDE8A4
:1024B000F84004F08FB800BF480B002000240258F9
:1024C00030B59FB04C2200210BA804F027FE20223B
:1024D000002103A804F022FE022002F0B7FB002333
:1024E0000093364BDA6A22F00102DA62DB6A03F00B
:1024F00001030093324B9A6942F440429A619A690F
:1025000002F440420092009A9A699504FCD52D4A43
:10251000D2F8F41041F00201C2F8F410D2F8F4201D
:1025200002F002020192019A002202929A6942F498
:1025300040429A619B6903F4404302931F4BDA6A5D
:1025400042F00102DA62DB6A1D4A03F001030293E2
:10255000029B93699C04FCD54FF480330121042431
:102560000520C0220825CDE90B130223CDE9143341
:102570001893CDE919430023CDE916020BA81D934A
:10258000CDE91B5302F0FAFB08B172B6FEE73F2219
:1025900003232146CDE9032340234FF48062CDE994
:1025A000050503A8CDE90733CDE9092302F024FF8F
:1025B00008B172B6FEE71FB030BD00BF000400587E
:1025C00000480258004402587FB50021102202A89A
:1025D00004F0A4FD00F02AFE01234FF0105202A8DF
:1025E000ADF80830404BCDE90323404B059300F094
:1025F0003BFE042000F028FE3D4B5A6912F40032E5
:1026000011D1BFF34F8FBFF36F8FC3F85022BFF3C9
:102610004F8FBFF36F8F5A6942F400325A61BFF394
:102620004F8FBFF36F8F324A536913F4803323D136
:10263000C2F88430BFF34F8FD2F8803043F6E07495
:10264000C3F3C900C3F34E335B0103EA040601463A
:1026500046EA81750139C2F86052F9D2203B13F184
:10266000200FF2D1BFF34F8F536943F4803353618E
:10267000BFF34F8FBFF36F8F00F01AFD1D4CFFF7B4
:102680001FFF0026FFF788FA4FF0105500F036FCC8
:10269000FFF724F8FFF750F800F032F8FFF760FA80
:1026A00000F0AAFA144B1A68D36843F00103D36010
:1026B000FFF75EFDFFF7C6F9FFF7F2F9FFF726FA1D
:1026C00048F240314FF01050FFF71AF92378012BF0
:1026D000FCD1002126704FF48C73F022084600953F
:1026E000FFF7C4FEF2E700BF120000030001010182
:1026F00000ED00E0090A00200C0A002072B6FEE797
:1027000008B50C4801220C4B20214FF0160CC0E9F3
:1027100000321023C0E902130023C0E904C3C0E95A
:102720000623036202F0DEFA18B1BDE80840FFF7A5
:10273000E5BF08BDFC0A002000500052F0B5B9B05A
:1027400004461422002104A804F0E8FCBC22002165
:1027500009A804F0E3FC22682B4B9A4252D14FF0B7
:10276000007309A8099303F0A3F808B1FFF7C6FFA7
:10277000264B022600250324D3F8D4200A2704A9D7
:10278000234842F48042C3F8D420D3F8D42002F482
:1027900080420192019AD3F8E02042F04002C3F84F
:1027A000E020D3F8E02002F040020292029AD3F82F
:1027B000E02042F02002C3F8E020D3F8E030089790
:1027C00003F020030393039B4023CDE90654CDE996
:1027D000043602F043F94FF4986304A90D48CDE99B
:1027E00004360923CDE90654089302F037F94FF473
:1027F000407304A907480897CDE90436CDE906548B
:1028000002F02CF939B0F0BD0050005200440258DB
:102810000018025800140258F0B5002389B01E4C6D
:102820004FF480770793012503A920464FF40076E3
:10283000CDE90533194BD3F8E02042F48072C3F898
:10284000E020D3F8E02002F480720192019AD3F8DC
:10285000E02042F48072C3F8E020D3F8E03003F4C3
:1028600080730293029B1123CDE9037302F0F6F803
:1028700003A92046039602F0F1F82A46394620467D
:10288000CDE9045502F0DCF92A463146204602F033
:10289000D7F909B0F0BD00BF00200258004402582B
:1028A00082B00022013801D202B07047ADF8062094
:1028B000BDF806309BB2052BF4D8BDF806300133C5
:1028C0009BB2ADF80630F3E710B5124C01224FF47D
:1028D0000071204602F0B4F9012220464FF48071C5
:1028E00002F0AEF90820FFF7DBFF4FF40071002281
:1028F000204602F0A5F90820FFF7D2FF4FF48071BF
:102900002046002202F09CF90820BDE81040FFF7A5
:10291000C7BF00BF0020025810B5134C00224FF46F
:102920008071204602F08CF90820FFF7B9FF4FF4C0
:1029300000710022204602F083F90820FFF7B0FF63
:102940004FF480710122204602F07AF90820FFF747
:10295000A7FF4FF400712046012202F071F9082010
:10296000BDE81040FFF79CBF0020025810B5164C80
:1029700000224FF48071204602F062F90820FFF730
:102980008FFF4FF400710022204602F059F9082011
:10299000FFF786FF4FF480710122204602F050F9C4
:1029A0000820FFF77DFF4FF480712046002202F0DF
:1029B00047F9204601224FF4007102F041F9082046
:1029C000BDE81040FFF76CBF0020025810B5134C53
:1029D00000224FF48071204602F032F90820FFF700
:1029E0005FFF4FF400710122204602F029F9082010
:1029F000FFF756FF4FF480710122204602F020F9C4
:102A00000820FFF74DFF4FF480712046002202F0AE
:102A100017F90820BDE81040FFF742BF0020025818
:102A200008B501224FF40071154802F009F9082099
:102A3000FFF736FF4FF480710122114802F000F9D0
:102A40000820FFF72DFF4FF400710D4802F0F2F857
:102A5000024650B100220A484FF4807102F0F0F8AB
:102A60000820FFF71DFF002008BD05484FF48071C6
:102A700002F0E6F80820FFF713FF0120F4E700BF9B
:102A80000020025870B504460025174E23064FF467
:102A9000007130464CBF0122002202F0D1F808201C
:102AA000FFF7FEFE4FF4807101220F4802F0C8F8D4
:102AB0000820FFF7F5FE4FF4807100220A4802F06B
:102AC000BFF8072D05D101224FF40071304602F006
:102AD000B7F801356400EDB2E4B2082DD6D1BDE8F7
:102AE0007040FFF79DBF00BF00200258F8B50646B2
:102AF00008250024144F01224FF480713846013D0F
:102B000002F09EF80820FFF7CBFE4FF40071384624
:102B100002F090F800F0010000224FF4807140EACA
:102B20004404384602F08CF80820FFF7B9FE15F08F
:102B3000FF05E4B2DFD1012E03D1FFF717FF2046D6
:102B4000F8BDFFF743FFFAE70020025810B504462E
:102B5000FFF7BAFE7820FFF795FF012807D1200A7A
:102B6000FFF790FF012802D1E0B2FFF78BFF0020B2
:102B700010BD38B505460C46FFF7A6FE2846FFF700
:102B8000E5FF10B92046FFF77DFFFFF7C5FE0020E7
:102B900038BD10B50446FFF797FE2046FFF7D6FF75
:102BA000044680B9FFF7B8FEFFF78EFE7920FFF7E5
:102BB00069FF012803D12046FFF798FF0446FFF77D
:102BC000ABFE204610BD0024FBE770B506460C4660
:102BD0001546FFF779FE3046FFF7B8FF10B92544D8
:102BE000AC4203D1FFF798FE002070BD14F8010B32
:102BF000FFF748FFF4E7000008B515484FF48003DD
:102C0000144A4FF40031C0E9002307234FF000526B
:102C1000C0E902130023C0E906234FF08042C0E957
:102C20000D232022C0E90433C0E90833C0E90A3388
:102C3000C0E90F23C0E91133C0E91333C0E91533EC
:102C400003F0C8FC18B1BDE80840FFF757BD08BD48
:102C5000480B002000500140F0B5B9B004461422E2
:102C6000002104A804F05AFABC22002109A804F0AB
:102C700055FA2268304B9A425CD14FF4005309A8B0
:102C8000099302F015FE08B1FFF738FD2B4B022720
:102C900000260325D3F8F020052404A9284842F48F
:102CA0008012C3F8F020D3F8F02002F480120092D2
:102CB000009AD3F8E02042F48062C3F8E020D3F811
:102CC000E02002F480620192019AD3F8E02042F4FD
:102CD0000072C3F8E020D3F8E02002F40072029200
:102CE000029AD3F8E02042F08002C3F8E020D3F843
:102CF000E030089403F080030393039B0123CDE9A4
:102D00000665CDE9043701F0A9FE4FF4806304A9FC
:102D10000C480894CDE90437CDE9066501F09EFE24
:102D2000202304A908480894CDE90437CDE90665B5
:102D300001F094FE39B0F0BD00500140004402584B
:102D40000028025800240258001C0258074B82B089
:102D5000D3F8F42042F00202C3F8F420D3F8F430A0
:102D600003F002030193019B02B070470044025834
:102D7000FEE7FEE7FEE7FEE7FEE7704770477047B5
:102D800000F0C4B9014801F0B3B900BF740A0020D3
:102D9000014800F011BC00BF0C0A00200120704760
:102DA00008B504F091F9162303604FF0FF3008BD19
:102DB00008B504F089F916230360FEE770B50D46E7
:102DC00014460E46731B9C4201DC204670BDAFF3D7
:102DD000008006F8010BF5E770B50D4614460E4667
:102DE000731B9C4201DC204670BD16F8010B00F0FD
:102DF000FFF8F5E74FF0FF3070474FF40053002025
:102E00004B60704701207047002070470B4A034613
:102E1000116810B509B90A491160106809490A4CCE
:102E20000344091B8B4206D904F04EF90C230360BE
:102E30004FF0FF3010BD1360FCE700BFD00B002047
:102E4000B00C00200000082400200000224A136873
:102E500003F00F03062B05D8136823F00F0343F08C
:102E6000070313601D4B1A6842F001021A6000222A
:102E70001A611B4A19680A4017491A600A68120742
:102E800005D50A6822F00F0242F007020A6000220C
:102E900014499A61DA611A6299621349D962134935
:102EA00019635A639963DA6319645A64196821F4DF
:102EB000802119601A660E4B1B681B0C1B04B3F1B2
:102EC000005F03D20B4B0122C3F808210A4B43F2E7
:102ED000D2021A60704700BF00200052004402581E
:102EE0007FEDF6EA000202020000FF01800201010C
:102EF0000010005C008000510040005208B51648E8
:102F00004FF4E133154AC0E9002300230C22C0E945
:102F100002330361C0E90523C0E90733C0E909337F
:102F200004F01BF808B1FFF7E9FB00210A4804F0A0
:102F300082F808B1FFF7E2FB0021074804F09FF890
:102F400008B1FFF7DBFB044804F05AF818B1BDE8FC
:102F50000840FFF7D3BB08BDD40B00200010014090
:102F600010B5B6B004461422002102A804F0D6F829
:102F7000BC22002107A804F0D1F82268194B9A421C
:102F80002ED1012307A8079302F092FC08B1FFF7A6
:102F9000B5FB154B02A91548D3F8F02042F01002FA
:102FA000C3F8F020D3F8F02002F010020092009A4B
:102FB000D3F8E02042F00102C3F8E0204FF4C062F1
:102FC000D3F8E03003F001030193019B0223CDE924
:102FD00002230023CDE904330723069301F03EFDCD
:102FE00036B010BD001001400044025800000258E5
:102FF00007B54FF6FF730190012201A9034803F0C2
:103000001CFF019803B05DF804FB00BFD40B002047
:10301000DFF834D0FFF71AFF0C480D490D4A0023A2
:1030200002E0D458C4500433C4188C42F9D30A4A7D
:103030000A4C002301E013600432A242FBD304F0E7
:1030400049F8FFF7C1FA704700000824000000208B
:10305000C00900205CE90008C0090020B00C002075
:10306000FEE7000038B50F4B0546187808B9012077
:1030700038BD4FF47A730C4AB3FBF0F31068B0FB21
:10308000F3F000F0BFF804460028F0D10F2DEED881
:10309000024629464FF0FF3000F074F8034B2046FB
:1030A0001D60E5E708000020000000200C00002063
:1030B00010B5032000F054F802F0F2F80F49104A5E
:1030C0008B69C3F30323D35C03F01F03D8408B69E0
:1030D00003F00F03D35C0B4A03F01F0320FA03F342
:1030E0001360094B18600F20FFF7BCFF044618B9A6
:1030F000FFF72CFE204610BD0124FBE700440258D8
:10310000CEE400080400002000000020034A044B25
:1031100011681B780B441360704700BF640C0020DB
:1031200008000020014B1868704700BF640C0020A5
:1031300038B50446FFF7F6FF0546631C1EBF044B77
:103140001B78E418FFF7EEFF431BA342FAD338BD08
:1031500008000020014B1868000C70470010005C4C
:1031600007490302CA6803F4E06322F4E062120430
:10317000120C134343F0BF6343F40033CB6070473A
:1031800000ED00E0164B30B5DC68C4F30224C4F156
:103190000703251D042B28BF0423062D4FF0FF3500
:1031A0008CBF033C002405FA03F3002821EA030343
:1031B00003FA04F305FA04F422EA040243EA0203E0
:1031C0004FEA0313DBB206DB00F1604000F561401B
:1031D00080F8003330BD00F00F00024A1354F9E7C5
:1031E00000ED00E014ED00E0002808DB01234209B7
:1031F00000F01F0003FA00F0014B43F82200704773
:1032000000E100E00138B0F1807F0BD24FF0E02305
:10321000054AF0215861002082F8231007229861A6
:103220001A6170470120704700ED00E0BFF35F8F27
:10323000044B5A6A22F480325A620022C3F8942066
:10324000704700BF00ED00E0064B40F00100C3F8FE
:1032500094005A6A42F480325A62BFF34F8FBFF330
:103260006F8F704700ED00E04378144A10B5C2F844
:1032700098300178E9B14368C2F89C30C37A047B86
:103280001B0643EA04730B43817A43EAC143417B43
:1032900043EA8143817B43EA4143C17B43EA0143E3
:1032A000417A43EA0123017A43EA4103C2F8A0309C
:1032B00010BDC2F89C10C2F8A010F9E700ED00E0C4
:1032C00010B5044608B9012010BD437F03F0FF028A
:1032D00013B90277FEF718FA022363772379E3B96B
:1032E0002368134A5A619A6822F018029A60627938
:1032F0002368D2B94FF0FF321A6100209A686169E1
:1033000022F060020A43A1699A609A6822F0800262
:103310000A439A6001236377D6E7D4E90212204674
:1033200000F008F80028E2D0CDE72269E4E700BF0A
:10333000B71DC1041F2310B5013B1CD321FA03F4B0
:10334000E407F9D5102A12D004D83AB1082A10D0CF
:1033500001200BE0182AFBD1062BF9D80068416147
:10336000836823F018031A438260002010BD072BE6
:10337000F3E70F2BF1E7002AEAD1EFE7806B836CCC
:103380005B6D022B06D0012380F83530C36C43F00F
:103390004003C364C36D184710B5846BA06CA26B67
:1033A000036832B31968A26B12F001021AD1090343
:1033B00018D5DB68E16B03EBC10101F023FBA36BC4
:1033C000013BA363A26B236C9A420AD12368DA689B
:1033D00042F00102DA601B689B0702D5012384F8E2
:1033E000353010BD1A681203ECD41B690122E16B61
:1033F000E1E71A68110302D5626CDA60E2E71A6845
:103400001203DFD4E06B626C216C02EB80021A6164
:10341000A163D7E77047704738B5044600284CD001
:1034200090F8353073B9264B0365264B4365264B20
:103430008365264BC365036E0BB9254B0366236E6C
:1034400020469847022384F83530A3690BB1002247
:10345000626222681F4910686569014011606168F5
:1034600010680B43102943EA0503E56843EA0503A6
:10347000256943EA0503A56843EA0503256A43EA8B
:103480000503656A43EA0503A56A43EA0503E56A9D
:1034900043EA0503256B43EA050343EA000313608F
:1034A00001D1E3699361D368002043F01E03D36028
:1034B0000123E06484F8353038BD0120FCE700BF0B
:1034C000191B000817340008153400085D1B00089C
:1034D0008117000807F0E0FFF7B50D4690F83410AB
:1034E0000446164601294FF002002ED0216801271C
:1034F00084F83500B3F5803F84F834700868DFF84D
:10350000B0E040F480400860086820F002000860E5
:10351000086840EA0500274D41F8280BA06CC564F7
:103520004FF00005C0F83CE00565A5632564E56340
:1035300065640CD200F00CFC00282FD040233846E4
:1035400084F83450E36484F8357003B0F0BDC0F8FB
:1035500044E0A7636264E363E36BB3F5803F16D294
:10356000A36B023BA363A36B2364E36BE26B06EBE9
:1035700083030092324601F091F878B14023012094
:10358000E364002384F8350084F83430DDE7E36B2E
:103590005B08E363A36B5B00A363DDE722680020A5
:1035A000136843F00103136084F83400CDE700BFD3
:1035B000993300087D330008036870B51D6904461F
:1035C0006A070CD504225A61C36C43F00203C3643A
:1035D0001E4B80F83520806C036500F0D5FCAB07EE
:1035E0000ED523680222A06C5A61E36C43F00103FC
:1035F000E364042384F83530144B036500F0C4FC05
:10360000EE0605D52368102220465A61A36D98471F
:10361000280705D52368082220465A61636D98471C
:10362000E90712D523681A68920703D5DA6822F0F1
:103630001E02DA60DA68204622F00102DA60012216
:103640005A61236DBDE87040184770BD7D33000896
:1036500030B5044690F8340001284FF002000FD036
:10366000039D41EA024184F8350043EA054320689E
:10367000436201230162002084F8353084F834006D
:1036800030BD90F8342003460220012A0CD019687E
:1036900083F8350000200A6842F004020A60012223
:1036A00083F8340083F8352070470000F0B50468D3
:1036B0005B4E876DB44245D05A4DAC4242D018356E
:1036C000AC423FD01835AC423CD01835AC4239D072
:1036D0001835AC4236D01835AC4233D01835AC4230
:1036E00030D005F55675AC422CD01835AC4229D0F7
:1036F0001835AC4226D01835AC4223D01835AC4230
:1037000020D01835AC421DD01835AC421AD018352F
:10371000AC4217D0444DAC4214D01435AC4211D059
:103720001435AC420ED01435AC420BD01435AC423B
:1037300008D01435AC4205D01435AC4202D0143553
:10374000AC4269D1D0E9195CC5F804C0C56E1DB1A1
:10375000D0E91C5CC5F804C0B44237D0314DAC424E
:1037600034D01835AC4231D01835AC422ED0183593
:10377000AC422BD01835AC4228D01835AC4225D0FD
:103780001835AC4222D005F55675AC421ED018351E
:10379000AC421BD01835AC4218D01835AC4215D00D
:1037A0001835AC4212D01835AC420FD01835AC42A7
:1037B0000CD01835AC4209D01B4DAC4217D1C56DA9
:1037C00005F01F060125B5407D6009E0C56D05F0D7
:1037D0001F063F25B540BD60256825F4802525607E
:1037E00063608368402B18D1A260E16014E00F4D44
:1037F000AC42E4D01435AC42E1D01435AC42DED05A
:103800001435AC42DBD01435AC42D8D01435AC42C0
:10381000D5D01435AC42D2D0F0BDA160E260FBE758
:103820001000024028000240085402581C5402585C
:103830000368244A934210B532D0183293422FD0F5
:10384000183293422CD01832934229D01832934226
:1038500026D01832934223D01832934220D0183207
:1038600093421DD002F55672934219D018329342FA
:1038700016D01832934213D01832934210D0183217
:1038800093420DD0183293420AD01832934207D097
:103890001832934204D023F0FF038365806D10BD7E
:1038A000D9B21822084C23F47F73103923F0030394
:1038B0005F29B1FBF2F202F0070288BF0433A25C79
:1038C000C265EAE710000240DEE4000802681F4912
:1038D000D3B28A4224D014318A4221D014318A4290
:1038E0001ED014318A421BD014318A4218D01431B0
:1038F0008A4215D014318A4212D014318A420FD034
:103900001821103BB3FBF1F311491144A8291AD92E
:1039100003F1805202F50242920002660D4A0AE06B
:103920001422083BB3FBF2F303F1B05202F5164246
:1039300092000266084A03F01F034266012202FA5F
:1039400003F3836670470833E2E700BF0854025868
:10395000F0FBFDBF80080240805802580279511EDA
:10396000072910B521D80368134CA3421ED0143484
:10397000A3421BD01434A34218D01434A34215D050
:103980001434A34212D01434A3420FD01434A342EF
:103990000CD01434A34209D0084B13449B00C366D7
:1039A000074B036701238B40436710BD054B13444E
:1039B0009B00C366044BF4E7085402583F82001092
:1039C000400902403F96001640590258F8B5044697
:1039D000FFF7A8FB0646002C00F0E6802368844D24
:1039E000AB426AD0834A934267D01832934264D084
:1039F0001832934261D0183293425ED0183293420B
:103A00005BD01832934258D01832934255D002F509
:103A10005672934251D0183293424ED0183293428C
:103A20004BD01832934248D01832934245D01832C6
:103A3000934242D0183293423FD0183293423CD046
:103A40006D4A934240F05981022284F835200022C9
:103A500084F83420A2681968402A21F4FF3121F447
:103A6000F87100F06881802A0CBF4FF4804000207C
:103A7000D4E90362D20842EAD602666942EAD60273
:103A8000A66942EAD602E66942EAD602266A42EA14
:103A900016120A43024320461A60584A1A44142355
:103AA000B2FBF3F29200E265FFF7C2FEE36D03F0B2
:103AB0001F02012393404360B6E00222AB4284F828
:103AC00035204FF0000284F834201ED0494A93423A
:103AD0001BD01832934218D01832934215D01832A6
:103AE000934212D0183293420FD0183293420CD026
:103AF0001832934209D002F55672934205D018321B
:103B0000934202D018329342FFD01A6822F0010289
:103B10001A6021680B68DB073CD40B68384EA0693B
:103B20001E40D4E9022313432269134362691343FD
:103B3000E26903431343226A13433343666A042E44
:103B400002BFD4E90B273A4313432E4A1268120CE2
:103B50001204B2F1005F07D36268A2F129071F2F98
:103B600024D94F3A032A25D90B60042E4B6923F040
:103B7000070343EA06034DD1A26AE66A1343002E07
:103B800048D0D0B9012A29D032F0020242D1F20144
:103B900040D526E0FFF7C6FA801B0528B9D92023B7
:103BA0006365032384F8353001201FE0164AFA408C
:103BB000D707D9D543F48013D6E7B0F5005F25D1F8
:103BC000032A27D801A050F822F000BFE33B0008E9
:103BD0008F3B0008E33B0008DD3B0008B6F1C07FE7
:103BE00018D140230120636584F83500F8BD00BF7B
:103BF000100002402800024008540258F8ABFDA70C
:103C00003F8010FE0010005C3F00C0C3022AE8D9CC
:103C1000032ABCD04B612046FFF70AFEE36D03F098
:103C20001F023F23934083602368AB4245D0454A3F
:103C3000934242D0183293423FD0183293423CD044
:103C40001832934239D01832934236D01832934208
:103C500033D01832934230D002F5567293422CD0B2
:103C60001832934229D01832934226D01832934208
:103C700023D01832934220D0183293421DD01832EC
:103C800093421AD01832934217D02F4A934214D03D
:103C90001432934211D0143293420ED01432934214
:103CA0000BD01432934208D01432934205D0143210
:103CB000934202D01432934219D120460025FFF7D7
:103CC00005FEA368226E802B04BF00236360636837
:103CD000D9B2013B1160072BD4E9192151602CD8CE
:103CE000FFF73CFEE36E1D60D4E91C325A600020F1
:103CF0000123606584F8353078E7144A93423FF435
:103D0000A3AE143293423FF49FAE143293423FF479
:103D10009BAE143293423FF497AE143293423FF479
:103D200093AE143293423FF48FAE143293423FF479
:103D30008BAE402334E710209AE6C4E91B55656733
:103D4000D5E700BF28000240085402581C5402580E
:103D500070B5002800F00B8190F83440012C00F081
:103D60000881012490F83550A54280F834404FF086
:103D7000000540F0F780022480F83540046845656E
:103D80007D4DAC421ED07D4EB4421BD01836B4429D
:103D900018D01836B44215D01836B44212D018369E
:103DA000B4420FD01836B4420CD01836B44209D001
:103DB00006F55676B44205D01836B44202D018360D
:103DC000B442FFD0266826F001062660FFF76EFC9D
:103DD0000368016CAB4253D0684A934250D018320A
:103DE00093424DD0183293424AD01832934247D072
:103DF0001832934244D01832934241D01832934241
:103E00003ED002F5567293423AD01832934237D0E0
:103E10001832934234D01832934231D01832934240
:103E20002ED0183293422BD01832934228D0183219
:103E3000934225D01A6822F00E0242F00A021A605C
:103E4000002956D14E4A934227D04E4A934224D05D
:103E50001432934221D0143293421ED01432934232
:103E60001BD01432934218D01432934215D014321E
:103E7000934212D01A68002042F001021A6070BD0D
:103E80001A6822F01E0242F016021A6019B11A686E
:103E900042F008021A60AB4230D1026E1168C903C9
:103EA0005BD4C26E1AB1116841F480711160AB42EB
:103EB000E0D0324A9342DDD018329342DAD0183241
:103EC0009342D7D018329342D4D018329342D1D0F3
:103ED00018329342CED018329342CBD002F55672AC
:103EE0009342C7D018329342C4D018329342C1D003
:103EF000C0E71A6842F004021A60A3E71F4A93421F
:103F0000CBD018329342C8D018329342C5D0183261
:103F10009342C2D018329342BFD018329342BCD0E1
:103F200018329342B9D002F556729342B5D0183286
:103F30009342B2D018329342AFD018329342ACD0F1
:103F400018329342A9D018329342A6D01832934225
:103F5000A3D018329342A0D074E7116841F4807165
:103F600011609EE74FF4006380F8345043650120F0
:103F700085E7022083E700BF1000024028000240CE
:103F8000085402581C54025810B528B190F8353026
:103F9000022B03D08023436501207FE00368504A51
:103FA000934252D04F498B424FD018318B424CD064
:103FB00018318B4249D018318B4246D018318B4290
:103FC00043D018318B4240D018318B423DD001F59F
:103FD00056718B4239D018318B4236D018318B4212
:103FE00033D018318B4230D018318B422DD018315C
:103FF0008B422AD018318B4227D018318B4224D0E3
:104000001A6822F00E021A601A6822F001021A6081
:10401000354A934243D1026E136823F480731360D0
:10402000D0E9161303F01F02012393404B60D0E93F
:1040300019325A60C36E002B46D01A6822F480727F
:104040001A60D0E91C325A603EE00421934280F8A5
:1040500035101ED0234A93421BD01832934218D0F9
:104060001832934215D01832934212D0183293422C
:104070000FD0183293420CD01832934209D002F577
:104080005672934205D01832934202D018329342AE
:10409000FFD01A6822F001021A60002010BD134AF6
:1040A0009342B8D014329342B5D014329342B2D076
:1040B00014329342AFD014329342ACD014329342B4
:1040C000A9D014329342A6D00123002480F83530C1
:1040D000036D80F834400BB19847DEE71846DDE702
:1040E0001000024028000240085402581C54025894
:1040F00000232DE9F34101930446294B294E1F6803
:104100000368856DB342D5F80080D5F800C04FD064
:10411000254A93424CD01832934249D018329342E8
:1041200046D01832934243D01832934240D01832CE
:1041300093423DD0183293423AD002F556729342E0
:1041400036D01832934233D01832934230D01832DE
:1041500093422DD0183293422AD01832934227D05E
:104160001832934224D01832934221D00F4A9342FE
:1041700040F00C82E16D04201A6801F01F018840B4
:1041800010EA0C0F00F02982560740F12682110434
:10419000686040F11A82D30300F11D82A36C80E1B4
:1041A000000000201000024028000240085402587D
:1041B000E26D082002F01F02904010EA080F3DD087
:1041C000B3422ED085498B422BD018318B4228D058
:1041D00018318B4225D018318B4222D018318B42B6
:1041E0001FD018318B421CD018318B4219D001F5E9
:1041F00056718B4215D018318B4212D018318B4238
:104200000FD018318B420CD018318B4209D01831A5
:104210008B4206D018318B4203D018318B4240F0CC
:10422000C2801968C1F3800141B1196821F004010D
:104230001960A860616D41F00101616528FA02F121
:10424000C80734D5B3422ED064498B422BD01831E5
:104250008B4228D018318B4225D018318B4222D086
:1042600018318B421FD018318B421CD018318B4231
:1042700019D001F556718B4215D018318B4212D0EE
:1042800018318B420FD018318B420CD018318B4231
:1042900009D018318B4206D018318B4203D0183127
:1042A0008B4240F084805969090600F18280042124
:1042B000914011EA080F32D0B3422DD047488342D3
:1042C0002AD01830834227D01830834224D01830A7
:1042D000834221D0183083421ED0183083421BD035
:1042E0001830834218D000F55670834214D018302D
:1042F000834211D0183083420ED0183083420BD045
:104300001830834208D01830834205D018308342D9
:1043100002D01830834254D11868800753D410213A
:1043200001FA02F212EA080F5ED0B3422DD02B49F7
:104330008B422AD018318B4227D018318B4224D09F
:1043400018318B4221D018318B421ED018318B424C
:104350001BD018318B4218D001F556718B4214D006
:1043600018318B4211D018318B420ED018318B424C
:104370000BD018318B4208D018318B4205D0183140
:104380008B4202D018318B4223D1196811F0080FEB
:104390002AD0AA601A68500340F18B801B68190369
:1043A0001ED4236C1DE01968C1F3C0013CE71968F5
:1043B0007DE701219140A960616D41F002016165D5
:1043C00075E71968ABE7A960616D41F004016165AB
:1043D000A5E7196811F0040FDAE700BF28000240D2
:1043E000A36C0BB120469847E26D202102F01F021A
:1043F000914011EA080F73D02368B3422DD08D4845
:1044000083422AD01830834227D01830834224D0E8
:104410001830834221D0183083421ED01830834296
:104420001BD01830834218D000F55670834214D048
:104430001830834211D0183083420ED01830834296
:104440000BD01830834208D01830834205D0183082
:10445000834202D01830834234D1186810F0100F14
:104460003ED0A96094F8351004292FD1196821F0A5
:1044700016011960596921F080015961216C09B94F
:10448000A16C19B1196821F0080119603F2303FAE2
:1044900002F20123AA6084F83530002384F8343016
:1044A000236D002B00F08E80204602B0BDE8F04165
:1044B00018471A68D2053FF574AF1A6822F008024F
:1044C0001A606EE7186810F0020FC9E71A68550302
:1044D0004DD51B68180357D4636C0BB12046984721
:1044E000636D002B6ED0636DD9073ED5042384F82D
:1044F00035302368B3421ED04E4A93421BD0183247
:10450000934218D01832934215D01832934212D0E9
:10451000183293420FD0183293420CD01832934283
:1045200009D002F55672934205D01832934202D058
:1045300018329342FFD01A6822F001021A604FF439
:104540001652B7FBF2F7019A0132BA42019202D831
:104550001A68D207F7D41B68DF074CBF0323012377
:1045600084F83530002384F83430E36C99E71A6816
:1045700012F4807208D1196821F01001196001232A
:1045800084F8342084F83530E36BA6E72A4A934256
:104590003FF4F0AD143293423FF4ECAD1432934249
:1045A0003FF4E8AD143293423FF4E4AD1432934249
:1045B0003FF4E0AD143293423FF4DCAD1432934249
:1045C0003FF4D8AD02B0BDE8F081970603D41A6875
:1045D00022F004021A60236C63E70220884010EA8C
:1045E0000C0F16D0960714D56860100403D5D103BC
:1045F0000DD4636C55E712F0200208D1196821F040
:104600000A011960012384F8342084F83530E36B03
:1046100047E70820884010EA0C0FD3D01207D1D505
:104620001A6822F00E021A60012303FA01F1696090
:10463000636595E7280002401C54025830B50468B1
:10464000154D8068AC421ED01835AC421BD01835D1
:10465000AC4218D01835AC4215D01835AC4212D047
:104660001835AC420FD01835AC420CD01835AC42DE
:1046700009D005F55675AC4205D01835AC4202D0CC
:104680001835AC42FFD04028636002D1A260E160DF
:1046900030BDA160E260FBE710000240F8B50446BF
:1046A0008068802804D14FF4807301206365F8BDD1
:1046B00094F83400012800F0A181012094F83550CD
:1046C000854284F8340040F0958102206D4D84F8D5
:1046D0003500002060652068D4E916C7A84207F0BD
:1046E0001F0700F0C480684EB04200F0C08018364A
:1046F000B04200F0BC801836B04200F0B8801836E6
:10470000B04200F0B4801836B04200F0B0801836E5
:10471000B04200F0AC801836B04200F0A88006F538
:104720005676B04200F0A3801836B04200F09F8069
:104730001836B04200F09B801836B04200F09780E7
:104740001836B04200F093801836B04200F08F80E7
:104750001836B04200F08B801836B04200F08780E7
:10476000066846F4004646F0200606600361012311
:1047700003FA07F7CCF80470069B2046FFF75EFFAC
:104780002368216CAB4200F085803F4A934200F0E1
:104790008180183293427DD0183293427AD01832F9
:1047A000934277D01832934274D01832934271D02A
:1047B000183293426ED002F5567293426AD0183284
:1047C000934267D01832934264D01832934261D03A
:1047D000183293425ED0183293425BD01832934223
:1047E00058D01832934255D0284A934252D01432AE
:1047F00093424FD0143293424CD01432934249D05A
:104800001432934246D01432934243D0143293422E
:1048100040D0143293423DD01A6822F00E0242F08A
:104820000A021A6009B9A26C1AB11A6842F00402AD
:104830001A60164A934278D0154A934275D01432C2
:10484000934272D0143293426FD0143293426CD0A0
:104850001432934269D01432934266D01432934298
:1048600063D01A68002042F001021A601FE7066850
:1048700046F48026066003613F2303FA07F7CCF86D
:10488000087079E7100002402800024008540258DE
:104890001C540258D4E919205060E26E12B1D4E9D8
:1048A0001C205060AB422DD0554A93422AD018327A
:1048B000934227D01832934224D01832934221D009
:1048C000183293421ED0183293421BD018329342B2
:1048D00018D002F55672934214D01832934211D078
:1048E000183293420ED0183293420BD018329342B2
:1048F00008D01832934205D01832934202D01832B1
:10490000934289D11A6822F01E0242F016021A6000
:104910005A6942F080025A6109B9A26C1AB11A6848
:1049200042F008021A60AB4230D1226E1168C9030E
:104930005BD4E26E1AB1116841F480711160AB4230
:104940008FD02F4A93428CD01832934289D018329C
:10495000934286D01832934283D01832934280D04B
:10496000183293423FF47DAF183293423FF479AF4F
:1049700002F5567293423FF474AF183293423FF4FB
:1049800070AF183293423FF46CAF6AE71C4A93420F
:10499000CBD018329342C8D018329342C5D01832C7
:1049A0009342C2D018329342BFD018329342BCD047
:1049B00018329342B9D002F556729342B5D01832EC
:1049C0009342B2D018329342AFD018329342ACD057
:1049D00018329342A9D018329342A6D0183293428B
:1049E000A3D018329342A0D023E7116841F480711C
:1049F00011609EE74FF40063636558E6022056E6B7
:104A0000280002400368144883421ED018308342B5
:104A10001BD01830834218D01830834215D018307C
:104A2000834212D0183083420FD0183083420CD00A
:104A30001830834209D000F55670834205D01830F3
:104A4000834202D018308342FFD012B9D9600020CF
:104A500070471961FBE700BF100002402DE9F74FD6
:104A60000023DFF8C8914FF0B0440A6832FA03F52A
:104A700002D103B0BDE8F08F4FF0010E0EFA03FE35
:104A80001EEA020200F0BD804E684FEA43084FF074
:104A9000030C06F003050CFA08FC6F1E6FEA0C0C01
:104AA000012F34D8876807EA0C0ACF6807FA08F79D
:104AB00047EA0A078760476827EA0E0EC6F3001721
:104AC0009F4047EA0E074760C768022D07EA0C0EB1
:104AD0008F6807FA08F747EA0E07C76019D14FEA4F
:104AE000D30A03F0070B4FF00F0E00EB8A0A4FEAD0
:104AF0008B0BDAF820700EFA0BFE27EA0E0E0F6908
:104B000007FA0BF747EA0E07CAF8207001E0032DF9
:104B1000DAD1076805FA08F516F4403F07EA0C07F2
:104B200047EA050707606CD0D9F8F45023F0030773
:104B300003F0030C4FF00F0E45F0020507F1B047EC
:104B40004FEA8C0CC9F8F45007F58067D9F8F45097
:104B500005F002050195019D0EFA0CF5D7F80880C5
:104B600028EA050E324DA8424DD005F58065A842D1
:104B70004BD005F58065A84249D005F58065A8426F
:104B800047D005F58065A84245D005F58065A84267
:104B900043D005F58065A84241D005F58065A8425F
:104BA0003FD005F58065A8423DD005F58065A84257
:104BB0000CBF09250A2505FA0CF516F4801F45EAF5
:104BC0000E05BD606FEA020725680CBF3D40154326
:104BD00016F4001F256065680CBF3D40154316F4B0
:104BE000003F6560D4F884500CBF3D401543F60388
:104BF000C4F88450D4F8805054BF3D401543C4F8E5
:104C00008050013331E70025D5E70125D3E70225A0
:104C1000D1E70325CFE70425CDE70525CBE706251A
:104C2000C9E70725C7E70825C5E700BF00440258C4
:104C3000000002580369194214BF01200020704788
:104C40000AB1816170470904FBE7000038B5104CD8
:104C5000E36813F0040FE36805D103F00703181AA3
:104C600018BF012038BD23F007031843E060FEF7AA
:104C700059FA054663689B0401D50020F2E7FEF768
:104C800051FA401BB0F57A7FF4D90120EAE700BF62
:104C9000004802582DE9F041DDF8188004460E4620
:104CA00015461F4622689368334214BF0123002330
:104CB000AB4201D1002012E0B8F1FF3FF3D0FEF784
:104CC00031FAC01B404502D8B8F1000FEAD10423E5
:104CD000012084F84130636C43F001036364BDE854
:104CE000F081000037B50446FEF71CFA0546002C9B
:104CF0003FD094F841302BB92046FDF71FFD41F21B
:104D00008833A36421682046A3680A68013B22F423
:104D1000706242EA0322A36C0A6000220093202101
:104D20002B46FFF7B7FF10BB2268E569E3681168FF
:104D30002B43256A21F07F412B43656821F0D00188
:104D400043EA05630B4313605568D4E905310B430F
:104D5000216943EA0143084929400B435360136822
:104D600043F0010313600123606484F8413003B011
:104D700030BD0120FBE700BFFEF8E0FFF8B50446B8
:104D800008B901208BE00368DF075ED423689E0723
:104D900000F1AF802368DA0627D59E4B1A69996A1D
:104DA00002F03802082A07D0182A40F0078101F0E3
:104DB0000302012A40F002811B68DB0502D5E3698A
:104DC000802BDED1FEF7C6F941F20303216A984237
:104DD000904B00F2EC805A68202922F0F8420CBF78
:104DE00042F0804242EA81625A602368190700F16A
:104DF000278123689A0600F1488123685D071ED544
:104E0000854D2B6843F480732B60FEF78BF90646C3
:104E10002B68DA0540F15E81A3687E4D012B40F0DE
:104E200060812B6F43F001032B6741F28837FEF757
:104E300079F9784E0546336F9B0740F17881606AB7
:104E4000002840F07B81002029E0724B1A69996AA2
:104E500002F03802102A05D0182A0AD101F0030204
:104E6000022A06D11B689D0390D56368002B8DD163
:104E700087E76268B2F5803F12D11A6842F4803247
:104E80001A60FEF74FF9634E0546336898033FF505
:104E90007DAFFEF747F9401B6428F6D90320F8BD23
:104EA0005C4D2B689AB923F480332B602B6823F474
:104EB00080232B60FEF736F906462B6899037FF5B1
:104EC00065AFFEF72FF9801B6428F6D9E6E7B2F547
:104ED000A02F07D143F480232B602B6843F4803349
:104EE0002B60CEE723F480332B602B6823F48023E0
:104EF000F6E7484BE1681A69986A12F0380203D065
:104F0000182A2BD1820729D11B685B0702D50029FB
:104F10003FF437AF3F4D2A6822F019020A432A6056
:104F2000FEF700F906462B685F0711D5FEF712F968
:104F300041F20303226998426B6822D823F47C3340
:104F4000402A0CBF43F4003343EA02336B6021E78D
:104F5000FEF7E8F8801B0228E5D99FE71A68A9B197
:104F600022F019022B4D0A431A60FEF7DBF80646C1
:104F70002B685807DAD4FEF7D5F8801B0228F7D93A
:104F80008CE723F0FE4343EA0263DFE722F00102ED
:104F9000204E1A60FEF7C6F80546336859077FF5BC
:104FA000F9AEFEF7BFF8401B0228F6D976E7DA68BB
:104FB00022F07C5242EA0162DA6016E7E2696AB3E3
:104FC0001A68144D42F080021A60FEF7ABF80646EC
:104FD0002B68DF0511D5FEF7BDF841F20303226A05
:104FE000984210D86B68202A23F0F8430CBF43F096
:104FF000804343EA82636B60F7E6FEF793F8801B19
:105000000228E5D94AE7EB6823F07C5343EA0263C0
:10501000EB60EAE600440258004802581A689F4EC6
:1050200022F080021A60FEF77DF805463368D80545
:105030007FF5DBAEFEF776F8401B0228F6D92DE7A8
:105040006369964D83B16B6F43F001036B67FEF7A5
:1050500069F806466B6F9B073FF5CBAEFEF762F82B
:10506000801B0228F6D919E76B6F23F001036B67E9
:10507000FEF758F806466B6F9F077FF5BAAEFEF74E
:1050800051F8801B0228F6D908E7A369834D83B144
:105090002B6843F480532B60FEF744F806462B68D8
:1050A00098043FF5AAAEFEF73DF8801B0228F6D91A
:1050B000F4E62B6823F480532B60FEF733F80646A2
:1050C0002B6899047FF599AEFEF72CF8801B022817
:1050D000F6D9E3E6FEF726F8801B64287FF698AE43
:1050E000DCE6B3B92B6F41F2883723F001032B675D
:1050F0002B6F23F004032B67FEF714F806462B6F83
:1051000098077FF59CAEFEF70DF8801BB842F6D9E4
:10511000C4E6052B2B6F03D143F004032B6780E615
:1051200023F001032B672B6F23F004037CE6FDF7CC
:10513000F9FF401BB8427FF67EAEAFE6574D2B69B4
:1051400003F03803182B7AD02B68022823F08073E1
:105150002B6067D1FDF7E6FF06462B6899015BD40B
:10516000AB6AA26A23F47C7323F003031343E26A5D
:1051700043EA0213AB62636BA26B013B013A5B0231
:1051800012049BB202F4FE021343226B013AC2F3F3
:1051900008021343E26B013A120602F0FE42134387
:1051A0002B63EB6A23F00103EB626B6BA26C23F4BD
:1051B0007F4323F0F80343EAC2036B63EB6A226C7C
:1051C00023F00C031343EB62EB6A626C23F00203DF
:1051D0001343EB62EB6A43F48033EB62EB6A43F414
:1051E0000033EB62EB6A43F48023EB62EB6A43F03B
:1051F0000103EB622B6843F080732B60FDF792FF95
:10520000264D04462B689A013FF51DAEFDF78AFF37
:10521000001B0228F6D941E6FDF784FF801B022817
:105220009BD93BE6FDF77EFF04462B689B017FF58B
:105230000AAEFDF777FF001B0228F6D92EE60128FB
:10524000AA6A2B6B3FF42BAE02F00301A06A8142E5
:105250007FF497ADC2F30512E16A8A427FF491AD03
:10526000226BC3F30801013A91427FF48AAD626B6D
:10527000C3F34621013A91427FF483ADA26BC3F39D
:105280000641013A91427FF47CADE06BC3F30663C3
:105290000138181A18BF012001E600BF0044025867
:1052A0002DE9F0414D4C236903F03803102B00F039
:1052B0009080182B0DD0002B40F08D80236848483B
:1052C00013F0200F03D02368C3F3C103D840BDE817
:1052D000F081A76AA36AD4F82C8013F47C7FC3F30F
:1052E0000510666BF3D0FBF7C1F8C6F3CC06054694
:1052F00008F0010007F003077043FBF7B7F84FF021
:105300006451FBF70BF9012F064652D0022F40D013
:10531000002F4ED123689B0629D523683048C3F35C
:10532000C103276BD840FBF7A1F82946FBF7AAF980
:105330000446C7F30800FBF799F83146FAF7E6FF91
:105340004FF07E51FAF7E2FF01462046FBF7E6F800
:10535000224B0446186BC0F346200130FBF786F859
:1053600001462046FBF78EF9FBF728FAAFE7206BE2
:10537000C0F30800FBF77AF83146FAF7C7FF4FF0A1
:105380007E51FAF7C3FF294604461648FBF77AF91F
:10539000DAE7206BC0F30800FBF768F83146FAF74C
:1053A000B5FF4FF07E51FAF7B1FF294604460E488B
:1053B000ECE7206BC0F30800FBF758F83146FAF72A
:1053C000A5FF4FF07E51FAF7A1FF29460446074892
:1053D000DCE707487BE7074879E700BF004402584D
:1053E0000090D0030024744C20BCBE4B0024744AAF
:1053F00040787D0100093D002DE9F0410D4604464D
:1054000010B90120BDE8F081884A136803F00F034A
:105410008B42C0F0938023685F0700F19B801E07DA
:105420000BD583496669C86900F07000864204D9CB
:10543000CA6922F070023243CA61D8060BD57C4992
:10544000A669C86900F4E060864204D9CA6922F4FA
:10545000E0623243CA6199060BD57549E669086A6C
:1054600000F07000864204D90A6A22F070023243CA
:105470000A629A070BD56E49E668886900F00F004A
:10548000864204D98A6922F00F0232438A61DF071B
:105490006ED423689E0700F1A18064490A6802F077
:1054A0000F02AA4200F2A880580700F1B180190744
:1054B0000BD55F496569C86900F07000854204D268
:1054C000CA6922F070022A43CA61DA060BD558492C
:1054D000A569C86900F4E060854204D2CA6922F473
:1054E000E0622A43CA619B060BD5514AE069116A02
:1054F00001F07001884204D2136A23F07003034361
:105500001362FFF7CDFE4A494A4A8B69C3F303236E
:10551000D35C03F01F03D8408B6903F00F03D35C07
:10552000454A03F01F0320FA03F31360434B18604E
:10553000434BBDE8F0411868FDF794BD136823F0B4
:105540000F030B431360136803F00F038B427FF4C8
:1055500058AF60E736492669886900F070008642D6
:105560007FF65DAF8A6922F0700232438A6156E7A6
:105570002F4BA1689A6922F470620A439A616268AB
:105580001B68022A1DD113F4003F3FF43AAF284EA6
:1055900041F28838336923F0070313433361FDF781
:1055A000C1FD07463369626803F03803B3EBC20FED
:1055B0003FF46FAFFDF7B6FDC01B4045F2D90320A5
:1055C00020E7032A02D113F0007FDEE7012A02D18F
:1055D00013F4807FD9E713F0040FD6E71449E66887
:1055E000886900F00F008642BFF457AF8A6922F045
:1055F0000F0232438A6150E70A6822F00F022A4301
:105600000A600A6802F00F02AA427FF4FAAE4BE782
:1056100007492569886900F070008542BFF447AFEB
:105620008A6922F070022A438A6140E70020005212
:1056300000440258CEE400080400002000000020CE
:105640000C00002008B5FFF72BFE0B4A0B499369AD
:105650009269C3F3032302F00F02CB5C03F01F0334
:1056600020FA03F3885C064A00F01F0023FA00F0DA
:105670001060044A136008BD00440258CEE40008DC
:10568000040000200000002008B5FFF7DBFF054BF9
:10569000054ADB69C3F30213D35C03F01F03D84050
:1056A00008BD00BF00440258CEE4000808B5FFF76B
:1056B000C9FF054B054ADB69C3F30223D35C03F042
:1056C0001F03D84008BD00BF00440258CEE40008C4
:1056D000F8B53A4C06460D46A36A03F00303032BC4
:1056E00069D0236823F080632360FDF71BFD074624
:1056F00023681A014BD4A36A326823F47C3343EA4B
:105700000233A362B368F268013B013A5B02120400
:105710009BB202F4FE0213437268013AC2F308021C
:1057200013433269013A120602F0FE421343A363A7
:10573000E36A726923F0C0031343E362E36AB26968
:1057400023F020031343E362E36A23F01003E362D0
:10575000E36BF26923F47F4323F0F80343EAC203C7
:10576000E363E36A43F01003E362E36AB5B943F429
:105770000023E362114C236843F080632360FDF74C
:10578000D1FC054623681B010FD5002005E0FDF77D
:10579000C9FCC01B0228ABD90320F8BD012D0CBFEA
:1057A00043F4801343F40013E3E7FDF7BBFC401B15
:1057B0000228E7D9F0E70120EFE700BF00440258D4
:1057C000F8B53A4C06460D46A36A03F00303032BD3
:1057D00069D0236823F080532360FDF7A3FC0746BC
:1057E00023689A004BD4A36A326823F07C7343EA9F
:1057F0000253A362B368F268013B013A5B021204F0
:105800009BB202F4FE0213437268013AC2F308022B
:1058100013433269013A120602F0FE421343236435
:10582000E36A726923F440631343E362E36AB26993
:1058300023F400731343E362E36A23F48073E362A7
:10584000636CF26923F47F4323F0F80343EAC20355
:105850006364E36A43F48073E362E36AB5B943F4D3
:105860008003E362114C236843F080532360FDF70B
:1058700059FC054623689B000FD5002005E0FDF785
:1058800051FCC01B0228ABD90320F8BD012D0CBF71
:1058900043F4000343F08073E3E7FDF743FC401B50
:1058A0000228E7D9F0E70120EFE700BF00440258E3
:1058B0002DE9F8430668054616F0006609D0436EE8
:1058C000B3F5001F2ED013D8F3B1B3F5801F21D04C
:1058D00001262B68DC0540F1EA806B6D042B00F299
:1058E000E580DFE813F024002B00DD00290029000B
:1058F000B3F5401FECD1A64A0026696E136D23F460
:1059000040130B431365E4E7A14AD36A43F4003321
:10591000D362F0E702210430FFF7DAFE06460028E2
:10592000D7D1E8E702212430FFF74AFFF6E7984A8B
:10593000D36A43F40033D362344604E00021281DC7
:10594000FFF7C6FE0446002C40F0B380904A696D14
:10595000136D23F007030B4313652B6898050DD5D2
:10596000AB6D802B00F0C28000F2A580002B00F010
:10597000B180402B00F0B480012634462B685905D5
:1059800010D5D5F8A430B3F5800F00F0D48000F224
:10599000B580002B00F0C380B3F5001F00F0C58078
:1059A000012634462B681A0510D5D5F8A830B3F176
:1059B000007F00F0E58000F2C680002B00F0D4806C
:1059C000B3F1807F00F0D680012634462B689B011E
:1059D0000DD5AB6C202B00F0EF8000F2DB80002BAC
:1059E00000F0DB80102B00F0E180012634462B68AC
:1059F000DF040FD5EB6DB3F5005F00F0018100F21D
:105A0000E380002B00F0F080B3F5805F00F0F280BF
:105A1000012634462B6898040FD52B6EB3F5003F52
:105A200000F00E8100F2F480002B00F0FA80B3F554
:105A3000803F00F0FF80012634462B68590410D5C2
:105A4000D5F8AC30B3F1005F00F01B8100F20081AB
:105A5000002B00F00681B3F1805F00F00C8101267D
:105A600034462B681A040DD5EB6EB3F1805F00F05D
:105A70001081B3F1005F00F01A81002B00F00E815D
:105A8000012634462B68DB0140F127816B6C032B28
:105A900000F26781DFE813F0180113015F011801BC
:105AA000002105F12400FFF78BFE4BE70126344669
:105AB00053E7264651E7C02B03D0B3F5807F7FF430
:105AC0005BAFCCB9324AA96D136D23F4E0730B437D
:105AD000136553E72E4AD36A43F40033D362F0E7E9
:105AE0000021281DFFF7F4FD0446EAE7002105F137
:105AF0002400FFF765FEF7E726463FE7B3F5C00F42
